:020000040800F2
:10000000580A0020B5010008CD0C00089D08000822
:10001000C1010008C3010008C5010008000000007C
:10002000000000000000000000000000D50C0008E7
:10003000C901000800000000D10C00082D0D0008C7
:10004000CF010008CF010008CF010008CF01000850
:10005000CF010008CF010008CF010008CF01000840
:10006000CF010008CF010008CF010008CF01000830
:10007000CF010008CF010008CF010008CF01000820
:10008000CF010008CF010008CF010008CF01000810
:10009000CF010008CF010008CF010008CF01000800
:1000A000CF010008CF010008CF010008CF010008F0
:1000B000CF010008B10D0008CF010008CF010008F2
:1000C000CF010008CF010008CF010008CF010008D0
:1000D000CF010008CF010008B10F0008CF010008D0
:1000E000CF010008CF010008CF010008CF010008B0
:1000F000CF010008CF010008CF010008CF010008A0
:10010000CF010008CF010008CF010008CF0100088F
:10011000CF010008CF010008CF010008CF0100087F
:10012000CF010008CF010008CF010008CF0100086F
:10013000000000000000000000000000CF010008E7
:10014000CF010008CF010008CF0100080000000027
:1001500000000000CF010008CF010008CF01000817
:10016000CF010008CF0100080000000000000000DF
:10017000CF010008CF0100080000000000000000CF
:100180000000000000000000CF010008CF010008BF
:1001900035100008CF010008CF0100080000000062
:1001A000DFF80CD000F02AF800480047CD15000811
:1001B000580A00200648804706480047FEE7FEE749
:1001C000FEE7FEE7FEE7FEE7FEE7FEE7FEE7FEE707
:1001D000350D0008A101000840EA01039B0703D088
:1001E00009E008C9121F08C0042AFAD203E011F876
:1001F000013B00F8013B521EF9D27047064C074DF7
:1002000006E0E06840F0010394E8070098471034E6
:10021000AC42F6D3FFF7C8FFEC2F00080C30000803
:1002200080B586B040F22910C2F200000290012190
:1002300001700322427040F20002C2F200020392F7
:10024000537883701278C2700022027141710621C6
:1002500002F0EAF9029A01460398ADF816109DF8EB
:10026000161091719DF81710D17100880146049104
:10027000B0F5877F0BD0FFE7049840F21B2188423E
:1002800014D0FFE70498B0F5087F1ED03EE040F29E
:100290002910C2F20000082100F024F940F2000108
:1002A000C2F2000140F21B20088030E040F2291029
:1002B000C2F20000082100F015F940F20001C2F27C
:1002C00000014FF40870088021E040F22910C2F2CA
:1002D000000001900021017103214171062102F00B
:1002E000A3F901460198ADF816109DF8161081711A
:1002F0009DF81710C171082100F0F4F840F20001D8
:10030000C2F200014FF487700880FFE7FFE706B0F4
:1003100080BD000080B584B040F22920C2F2000008
:100320000078012840F09080FFE740F22910C2F2E7
:1003300000008178C07840EA0120ADF80E0040F25C
:100340002A00C2F200000078012801D0FFE76FE028
:1003500040F22821C2F200010A7840F22A00C2F2DB
:100360000000024412F8013C0A78024412F8022C00
:1003700042EA0322ADF80A20BDF80A20019209786A
:10038000023989B202F050F901460198884201D041
:10039000FFE74DE040F22A00C2F2000040788DF8FD
:1003A0000900BDF80E0001460091B0F5877F0BD023
:1003B000FFE7009840F21B21884213D0FFE7009826
:1003C000B0F5087F1CD031E040F22A00C2F20000F4
:1003D000C178007940EA012040F20801C2F2000130
:1003E000C88124E040F22A00C2F20000C1780079FE
:1003F00040EA012040F21801C2F20001088116E033
:1004000040F22910C2F200000179407940EA01204F
:10041000ADF80C00BDF80C1040F22A00C2F200004A
:10042000C21C4FF4087000F011F800E0FFE7FFE78E
:1004300040F22821C2F200010020087040F2292178
:10044000C2F200010870FFE704B080BD84B0ADF8CF
:100450000E00ADF80C10029202208DF80700BDF8D6
:100460000E00B0F5087F3BDBFFE7BDF80E00BDF8DE
:100470000C100844013840F22221884230DCFFE7AA
:10048000BDF80E1040F22400C2F2000000EB410063
:10049000A0F58860009000208DF80600FFE79DF829
:1004A0000600BDF80C10884219DAFFE702989DF8A3
:1004B000061000EB410040780099087002989DF802
:1004C000061010F811000099487000980230009052
:1004D000FFE79DF8060001308DF80600DFE7FFE733
:1004E00004B0704780B586B005908DF8131044F2C3
:1004F0000040C4F200000021039102F069FB41F2C8
:100500000040C4F20100012100F078FE03988DF84C
:100510001200FFE79DF812009DF8131088421CDAC4
:10052000FFE7FFE744F20040C4F20000072102F0B9
:10053000B3FA08B9FFE7F5E705989DF81210415C9A
:1005400044F20040C4F2000002F006FAFFE79DF812
:10055000120001308DF81200DCE7FFE744F20040A2
:10056000C4F20000072102F097FA08B9FFE7F5E7A7
:100570000120019000F066F9019941F20040C4F2B7
:10058000010000F033FE019944F20040C4F2000083
:10059000029002F01DFB0298042102F019FB06B044
:1005A00080BD000080B584B040F23D30C2F2000052
:1005B0000190022101700321417040F20201C2F258
:1005C000000102914A7882700978C170002101719E
:1005D0000A214171062102F027F8019A014602988A
:1005E000ADF80E109DF80E1091719DF80F10D1719D
:1005F000008801280CD1FFE740F23D30C2F2000034
:10060000002101710A214171082100F0BDF800E0CC
:10061000FFE704B080BD000080B584B040F23D40EB
:10062000C2F200000078012864D1FFE740F23D30BB
:10063000C2F200008178C07840EA0120ADF80E00D7
:1006400040F23E20C2F200000078022801D0FFE70D
:1006500044E040F23C41C2F200010A7840F23E2000
:10066000C2F20000024412F8013C0A78024412F877
:10067000022C42EA0322ADF80A20BDF80A200192BA
:100680000978023989B201F0CFFF0146019888420A
:1006900001D0FFE722E040F23E20C2F200004078A5
:1006A0008DF80900BDF80E00012815D1FFE740F2D2
:1006B0003D30C2F200000179407940EA0120ADF8F6
:1006C0000C00BDF80C1040F23E20C2F20000C21C2B
:1006D000012000F011F800E0FFE7FFE740F23C41A5
:1006E000C2F200010020087040F23D41C2F2000158
:1006F0000870FFE704B080BD84B0ADF80E00ADF81F
:100700000C10029202208DF80700BDF80E0001289F
:1007100038DBFFE7BDF80E00BDF80C1008440138C7
:100720000A282FDCFFE7BDF80E1040F22A20C2F2A3
:10073000000000EB41000238009000208DF8060018
:10074000FFE79DF80600BDF80C10884219DAFFE7B4
:1007500002989DF8061000EB41004078009908705F
:1007600002989DF8061010F8110000994870009842
:1007700002300090FFE79DF8060001308DF806007A
:10078000DFE7FFE704B0704780B582B001908DF8D5
:10079000031040F60000C4F201004FF4004100F0E5
:1007A0002DFD00208DF80200FFE79DF802009DF866
:1007B000031088421DDAFFE7FFE747F20000C4F2AA
:1007C000010040F2077101F065FF08B9FFE7F4E7A7
:1007D00001989DF80210415C47F20000C4F201004C
:1007E00002F0BAF8FFE79DF8020001308DF8020030
:1007F000DBE7FFE747F20000C4F2010040F20771B7
:1008000001F048FF08B9FFE7F4E7012000F01AF80B
:1008100040F60000C4F201004FF4004100F0E6FC95
:1008200002B080BD81B0ADF80200FFE7BDF8020064
:100830000138ADF80200000408B1FFE7F6E701B0A7
:100840007047000080B582B0ADF806000020ADF81A
:100850000400FFE7BDF80400BDF8061088421ADA6C
:10086000FFE70020ADF80200FFE7BDF80200F9281D
:100870000ADCFFE70120FFF7D5FFFFE7BDF8020024
:100880000130ADF80200F0E7FFE7BDF804000130E9
:10089000ADF80400DEE702B080BD0000FFE7FEE730
:1008A00080B584B08DF80F0040F60040C4F201001E
:1008B00001904FF48051029100F098FC0120FFF765
:1008C000B1FF8020042100F035F89DF80F000821C9
:1008D00000F030F80198029900F090FC04B080BD5F
:1008E00080B584B08DF80F008DF80E1040F60040F2
:1008F000C4F2010001904FF48051029100F076FCA7
:100900000120FFF78FFFA020032100F013F89DF8CE
:100910000F008000C0B2062100F00CF89DF80E0018
:10092000082100F007F80198029900F067FC04B074
:1009300080BD000080B582B08DF807008DF80610EC
:1009400000208DF80500FFE79DF805009DF80610D2
:1009500088423ADAFFE740F60040C4F201004FF463
:10096000004100F043FC0120FFF75CFF9DF8070009
:100970000006002809D5FFE740F60040C4F2010058
:100980004FF4804100F03AFC08E040F60040C4F229
:1009900001004FF4804100F029FCFFE740F60040E1
:1009A000C4F201004FF4004100F028FC0120FFF7E1
:1009B00039FF9DF8070040008DF80700FFE79DF81C
:1009C000050001308DF80500BEE702B080BD0000D3
:1009D00080B584B041F20040C4F20100042100F06F
:1009E000D7FC01284ED1FFE71420FFF72BFF41F27F
:1009F0000040C4F20100042100F0CAFC012834D1F7
:100A0000FFE740F23F40C2F200000078B0B9FFE7D4
:100A100040F60040C4F20100402100F0EFFB41F23B
:100A20000000C4F201004FF4005100F0DFFB40F27F
:100A30003F41C2F200010120087015E040F600407D
:100A4000C4F20100402100F0D1FB41F20000C4F2E9
:100A500001004FF4005100F0D1FB40F23F41C2F2DF
:100A6000000100200870FFE7FFE7FFE741F20040C8
:100A7000C4F20100042100F08BFC012801D1FFE742
:100A8000F4E7FFE741F20040C4F20100082100F062
:100A90007FFC012872D1FFE71420FFF7D3FE41F25B
:100AA0000040C4F20100082100F072FC012858D176
:100AB000FFE740F24040C2F20000007840BBFFE791
:100AC00040F60040C4F201000390802100F096FB44
:100AD00041F20040C4F20100022100F08FFB0398B4
:100AE0004FF4007100F08AFB03984FF4807100F01E
:100AF00085FB41F20000C4F201004FF4005100F008
:100B000075FB40F24041C2F200010120087027E06D
:100B100040F60040C4F201000290802100F066FB24
:100B200041F20040C4F20100022100F05FFB029894
:100B30004FF4007100F05AFB02984FF4807100F0FE
:100B400055FB41F20000C4F201004FF4005100F0E7
:100B500055FB40F24041C2F2000100200870FFE75F
:100B6000FFE7FFE741F20040C4F20100082100F076
:100B70000FFC012801D1FFE7F4E7FFE741F2004055
:100B8000C4F20100102100F003FC01284AD1FFE764
:100B90001420FFF757FE41F20040C4F2010010217B
:100BA00000F0F6FB012830D1FFE740F23E40C2F2F0
:100BB00000000078A0B9FFE741F20000C4F2010094
:100BC0000190802100F01AFB01984FF4005100F0D1
:100BD0000DFB40F23E41C2F200010120087013E01B
:100BE00041F20000C4F201000090802100F0FEFA02
:100BF00000984FF4005100F001FB40F23E41C2F278
:100C0000000100200870FFE7FFE7FFE741F2004026
:100C1000C4F20100102100F0BBFB012801D1FFE765
:100C2000F4E7FFE704B080BD80B58CB040F20D6002
:100C300000F050FF43F20040C4F20100049001F0C4
:100C400043FA049801210391ADF814100021029198
:100C5000ADF81610ADF8181040F207720792ADF813
:100C600020108DF8221005A901F02EFB0299039A9D
:100C70000498ADF82420ADF82610ADF82810ADF892
:100C80002A10ADF82C10ADF82E100321019109AAFD
:100C900000F0D8FF019904984FF4617201F080F9D7
:100CA00001990498602201F035F90199029A04989B
:100CB00001F09AF9049800F0BBFF0399049801F041
:100CC000BDFB049801F0F6FA0CB080BD704700003F
:100CD000704700007047000080B582B00090009817
:100CE0000138B0F1807F03D3FFE70120019019E0C4
:100CF000009801384EF21401CEF2000108604FF066
:100D0000FF300F2100F0D6F94EF21801CEF20001AB
:100D1000002008604EF21002CEF20002072111609E
:100D20000190FFE7019802B080BD000080B500F09F
:100D3000FBF980BD80B582B04EF68851CEF200013D
:100D4000086840F47000086041F20001C4F202013A
:100D5000086840F00100086041F20402C4F2020297
:100D6000106820F00300106008684FF6FF73CFF69C
:100D7000F6631840086041F20803C4F202034FF41E
:100D80001F00186000200190106041F22C02C4F294
:100D900002021060086820F48020086000F02AFF3A
:100DA00001994FF0006000F019FD02B080BD000015
:100DB00080B584B040F20040C4F20000012101F08F
:100DC0001FFB012840F0F280FFE740F24A50C2F2D8
:100DD00000000088012811DBFFE740F24A50C2F210
:100DE00000000088B0F57A7F08DAFFE740F24A5148
:100DF000C2F20001088801300880FFE740F24A5043
:100E0000C2F200000088B0F5FA7F27DBFFE740F26E
:100E10004A51C2F2000100200390088040F248408D
:100E2000C2F200000290028840F22A00C2F20000E2
:100E300040F24A41C2F20001FFF7CEF9029903984D
:100E400040F22923C2F2000301221A700A7840F20C
:100E50002823C2F200031A700880FFE740F24E60B8
:100E6000C2F200000088012811DBFFE740F24E606B
:100E7000C2F200000088B0F57A7F08DAFFE740F29E
:100E80004E61C2F20001088801300880FFE740F29D
:100E90004E60C2F200000088B0F5FA7F27DBFFE762
:100EA00040F24E61C2F2000100200190088040F241
:100EB0004C50C2F200000090028840F23E20C2F284
:100EC000000040F24E51C2F20001FFF785F900998F
:100ED000019840F23D43C2F2000301221A700A78E1
:100EE00040F23C43C2F200031A700880FFE740F270
:100EF0004140C2F2000001780131017000780A28F7
:100F000014DBFFE740F24541C2F2000108780130EE
:100F1000087040F24241C2F200010120087040F224
:100F20004141C2F2000100200870FFE740F2454055
:100F3000C2F20000007832281BDBFFE740F2454197
:100F4000C2F200010020087040F24641C2F20001E6
:100F50000120087040F24341C2F2000108780130DC
:100F6000087040F25461C2F2000108680130086064
:100F7000FFE740F24340C2F20000007802280DDB98
:100F8000FFE740F24341C2F200010020087040F246
:100F90004441C2F2000101200870FFE740F2004026
:100FA000C4F20000012101F021FAFFE704B080BD86
:100FB00080B544F20040C4F2000040F20531C0F2B6
:100FC000050101F0A9FDA0B3FFE744F20040C4F21F
:100FD000000001F0A5FC014640F24840C2F20000CA
:100FE00003885A1C028040F24A42C2F20002D154E5
:100FF00040F24A52C2F20002012111800088FF280B
:101000000CDBFFE740F24841C2F2000100200880FB
:1010100040F24A51C2F200010880FFE744F200406A
:10102000C4F2000040F20531C0F2050101F064FD98
:10103000FFE780BD80B547F20000C4F20100052142
:10104000C0F2057101F076FB98B3FFE747F20000AC
:10105000C4F2010001F064FC014640F24C50C2F2BF
:10106000000003885A1C028040F24E52C2F2000275
:10107000D15440F24E62C2F2000201211180008878
:10108000FF280CDBFFE740F24C51C2F200010020C8
:10109000088040F24E61C2F200010880FFE747F28B
:1010A0000000C4F201000521C0F2057101F022FB2D
:1010B000FFE780BD82B08DF8070000919DF9070021
:1010C00000280AD4FFE7009800019DF907104EF2AE
:1010D0000042CEF2000288540BE0009800019DF817
:1010E000071001F00F014EF61452CEF200028854A0
:1010F000FFE702B07047000080B582B040F20460A4
:1011000000F0E8FC41F20000C4F201000090102160
:1011100003224FF40053019300F078F800980199EE
:1011200000F06CF802B080BD40F25060C2F20000E6
:10113000006840B1FFE740F25061C2F20001086868
:1011400001380860FFE7704786B005908DF81310EE
:10115000002003900290019000900598010E3C2021
:10116000C4F2010050F8210001900598C0F303403B
:101170000090BDF8140003909DF81600C0060028EA
:1011800010D5FFE700990320884002900298059946
:1011900001F40011490C884002900299019888439B
:1011A00001900AE00398059901F40011490C00FA36
:1011B00001F1019888430190FFE79DF8130058B1B1
:1011C000FFE70398059901F40011490C00FA01F1B9
:1011D000019808430190FFE7019805990A0E3C2108
:1011E000C4F2010141F8220006B0704782B00190BC
:1011F000009100980199486102B0704782B0019057
:10120000009100980199086102B0704787B006907C
:10121000059104920393002001900090059800F03E
:101220000F0001909DF81400C006002814D5FFE7B8
:10123000049804280AD1FFE7019840F003000190C8
:10124000039A0699C86B1043C86304E00499019897
:1012500008430190FFE7FFE70020ADF80A00FFE731
:10126000BDF80A00072842D8FFE7BDF80A10039826
:10127000C840C007A0B3FFE7069800680090BDF81B
:101280000A0081000F2000FA01F1009888430090C5
:101290000198BDF80A10890000FA01F1009808438E
:1012A00000900598282809D1FFE7BDF80A10012011
:1012B000884003990840069948610DE00598482840
:1012C00009D1FFE7BDF80A100120884003990840C2
:1012D00006990861FFE7FFE7009806990860FFE7B5
:1012E000FFE7BDF80A000130ADF80A00B8E70820B2
:1012F000ADF80A00FFE7BDF80A000F2846D8FFE75F
:10130000BDF80A100398C840C007C0B3FFE70698AD
:1013100040680090BDF80A006FF01F0101EB8002E9
:101320000F2000FA02F20098904300900198BDF857
:101330000A2001EB820100FA01F1009808430090B5
:101340000598282809D1FFE7BDF80A100120884038
:1013500003990840069948610DE00598482809D18D
:10136000FFE7BDF80A10012088400399084006995C
:101370000861FFE7FFE7009806994860FFE7FFE78D
:10138000BDF80A000130ADF80A00B4E707B07047B5
:1013900083B001900091019880680099084204D0C0
:1013A000FFE701208DF80B0003E000208DF80B0013
:1013B000FFE79DF80B0003B07047000086B0059072
:1013C0008DF81310002003900290019000909DF87A
:1013D00017000006002806D5FFE71C20C4F2010014
:1013E0000068019005E00420C4F20100006801904B
:1013F000FFE70598C0F303400090BDF81400039088
:10140000059800F44010B0F5401F0CD1FFE701989B
:1014100020F0E06001900421C4F20101086820F08E
:10142000E060086023E09DF81600C00600280DD596
:10143000FFE70099032088400290029901988843B1
:101440000190019840F0E06001900FE00398059A48
:101450006FF00F0101EA524100FA01F1019888434F
:101460000190019840F0E0600190FFE7FFE79DF8F0
:10147000130060B1FFE70398059A6FF00F0101EACE
:10148000524100FA01F1019808430190FFE79DF8ED
:1014900017000006002806D5FFE701981C21C4F2BA
:1014A0000101086005E001980421C4F2010108600F
:1014B000FFE706B07047000080B582B000F028F862
:1014C00040F60040C4F2010000904FF48051FFF755
:1014D00095FE00984FF40041FFF790FE00984FF4FE
:1014E0008041FFF78BFE14200190FFF7ABF902203B
:1014F000FFF7D6F93020FFF7D3F95220FFF7D0F9E4
:101500000620FFF7CDF90198FFF79CF902B080BDE6
:1015100080B586B040F2036000F0DCFA40F206606D
:1015200000F0D8FA40F60040C4F20100019010210A
:101530000291032203924FF48053FFF767FE019854
:101540000299039A4FF40043FFF760FE0198029955
:10155000039A4FF48043FFF759FE0299039A41F62C
:101560000000C4F20100049080230593FFF74EFEB3
:1015700004980599FFF742FE06B080BD80B584B09F
:1015800040F20560009000F0A5FA41F20040C4F27C
:101590000100019003220392042302931946FFF7EE
:1015A00035FE009800F096FA01980299039A0823F4
:1015B000FFF72CFE009800F08DFA01980299039A2B
:1015C0001023FFF723FE04B080BD000080B586B075
:1015D000002003900590ADF8120000F00FFB4FF4CF
:1015E000806000F0EDF800F045FD00F053FFFFF7DC
:1015F000C5FF01F0A9FBFFF77FFD00F02FF9039A6B
:1016000026200321029100F045F80299039A542004
:1016100000F040F803991D20012200F03BF8FFF78D
:101620004BFFFFE7FEF776FEFEF7F6FFFFF7D0F978
:1016300040F24640C2F20000007801280BD1FFE7DB
:1016400040F24641C2F2000100200870FEF7E8FDBA
:10165000FEF7A8FFFFE7BDF8120068B1FFE7002022
:101660000190FF21FFF73CF94FF47A70FFF7EAF899
:101670000198ADF812000BE000210846FFF730F9A1
:101680004FF47A70FFF7DEF80120ADF81200FFE7A3
:10169000C8E7000080B584B08DF80F008DF80E10FB
:1016A0008DF80D2000200290019000904EF60C5015
:1016B000CEF20000006800F4E060B0F5E06F05D104
:1016C000FFE700200190042000904AE04EF60C5005
:1016D000CEF20000006800F4E060B0F5C06F05D104
:1016E000FFE7012001900320009039E04EF60C50F6
:1016F000CEF20000006800F4E060B0F5A06F04D105
:10170000FFE702200190009029E04EF60C50CEF247
:101710000000006800F4E060B0F5806F05D1FFE7DD
:10172000032001900120009018E04EF60C50CEF2FC
:101730000000006800F4E060B0F5407F05D1FFE7ED
:10174000042001900020009007E04FF4A06000F01A
:1017500037F8022001900090FFE7FFE7FFE7FFE77F
:10176000FFE79DF80E000199C1F104018840029045
:101770009DF80D000099C1F104020F21D1400140F4
:1017800002980843029002980001029002989DF886
:101790000F104EF20042CEF2000288549DF80F2046
:1017A00002F01F01012088404EF20011CEF200012C
:1017B00041EAD20121F00301086004B080BD0000BD
:1017C00081B0009000980021C0F2FA5108434EF613
:1017D0000C51CEF20001086001B0704782B0019058
:1017E0000091019800994FF68072C1F6FF72114086
:1017F00008434EF60851CEF200010860BFF34F8F48
:1018000002B0704780B582B040F2046000F062F927
:1018100040F2056000F05EF94FF4C06000F05AF944
:1018200041F20040C4F2010018210091032201920C
:101830004FF48043FFF7EAFC4FF480500121FFF79B
:10184000BDFD0099019A41F20000C4F201004FF47D
:101850000073FFF7DBFC02B080BD000080B5FFF72E
:10186000D1FFFFF7E1F980BD99B08DF8630000204A
:101870001690119040F20671C0F60811099140F2DD
:101880000121C0F203410891079006900591049050
:101890000391029041F20400C4F202000068C0F318
:1018A000810017901798019040B1FFE70198012837
:1018B0000AD0FFE7019802280CD084E041F2002012
:1018C000C0F27A00159084E041F20020C0F27A0064
:1018D00015907EE041F20400C4F20200006800F4BA
:1018E000803010901098B0F5803F2BD1FFE741F287
:1018F0002C00C4F20200006800F080400F900F98A6
:1019000030B9FFE741F20020C0F27A000C9005E008
:1019100046F60040C0F2DC200C90FFE741F20400E4
:10192000C4F20200006800F400300E900E98B0F58A
:10193000003F06D1FFE740F60010C0F23D000C90DA
:10194000FFE705E040F60010C0F23D000C90FFE715
:1019500041F20400C4F202000168C1F383410D9119
:1019600000680001002805D5FFE70D9840F0100041
:101970000D90FFE741F20400C4F20200006840004D
:10198000002805D5FFE70D9840F020000D90FFE7F7
:101990000D980E2804D8FFE70D9802300D900CE04A
:1019A0000D980F2808D3FFE70D98402804D8FFE7CB
:1019B0000D9801300D90FFE7FFE70C980D9900FBA3
:1019C00001F0159005E041F20020C0F27A00159078
:1019D000FFE741F20400C4F202000168C9B209093C
:1019E0000B910B9A06A9895C0A9115990A9AD14024
:1019F00014910168C1F302210B910B9A04A9895C2F
:101A00000A9114990A9AD14013910068C0F3C22038
:101A10000B900B9902A8405C0A9014980A99C84050
:101A200012909DF863000146009104284ED8009959
:101A3000DFE801F00306090C0F001598169046E048
:101A40001498169043E01398169040E01298169060
:101A50003DE041F2D400C4F202000068800718B9EA
:101A6000FFE7129811902EE041F2D400C4F2020078
:101A7000006800F00300012803D1FFE715981190DA
:101A800020E041F2D400C4F20200006800F003003C
:101A9000022804D1FFE74FF40040119011E041F219
:101AA000D400C4F20200006800F00300032806D14D
:101AB000FFE741F20020C0F27A00119000E0FFE75A
:101AC000FFE7FFE7FFE71198169000E0FFE71698A1
:101AD00019B0704781B0ADF80200BDF8020000F007
:101AE0001F02012101FA02F3810941F20002C4F24E
:101AF000020288581843885001B0704781B0ADF891
:101B00000200BDF8020000F01F02012101FA02F3F9
:101B1000810941F20002C4F20202885898438850B9
:101B200001B0704781B0ADF80200BDF8020000F0CE
:101B30001F02012101FA02F3810941F20002C4F2FD
:101B4000020288581843885001B0704784B00020C2
:101B50000390029041F20001C4F20201086840F0D3
:101B600001000860FFE703980130039041F2000094
:101B7000C4F20200006800F002000290FFE7029940
:101B80000020019039B9FFE70398B0F5A06018BFB5
:101B900001200190FFE70198C0070028E3D1FFE78B
:101BA00041F20000C4F2020000688007002802D45D
:101BB000FFE7FFE7FEE741F20401C4F202010091F2
:101BC0000868086008680860086840F48060086079
:101BD000086820F00300086008680860FFE741F229
:101BE0000400C4F202000068012008B9FFE7F6E72C
:101BF00004B0704780B5FFF7A9FF80BD80B540F203
:101C00000400C2F20000006844F6D351C1F2620140
:101C1000A0FB01108009FFF75FF810B1FFE7FFE7B5
:101C2000FEE74FF0FF300021FFF744FA80BD0000CF
:101C300081B000900099086840F08000086001B011
:101C40007047000084B00390ADF80A100192BDF80F
:101C50000A0001460091032800F259810099DFE84B
:101C600011F004005D00BC001B010399086A20F01C
:101C7000010008620399886920F0030088610198D7
:101C800002880399086A104308620399086A20F0E1
:101C900002000862019882880399086A104308626A
:101CA000039842F60041C4F20101884208D0FFE7E0
:101CB000039843F20041C4F2010188422DD1FFE7AD
:101CC0000399086A20F00400086201984288039989
:101CD000086A104308620399086A20F00800086245
:101CE0000198C2880399086A1043086203994868FA
:101CF00020F4807048600198028903994868104375
:101D000048600399486820F400704860019842894F
:101D10000399486810434860FFE7F9E00399086AAF
:101D200020F0100008620399886920F440708861EF
:101D3000019802880399086A40EA02100862039930
:101D4000086A20F020000862019882880399086AD6
:101D500040EA02100862039842F60041C4F2010111
:101D6000884208D0FFE7039843F20041C4F2010122
:101D7000884231D1FFE70399086A20F040000862E9
:101D8000019842880399086A40EA021008620399A0
:101D9000086A20F0800008620198C2880399086AE6
:101DA00040EA021008620399486820F480604860A5
:101DB000019802890399486840EA820048600399C3
:101DC000486820F400604860019842890399486897
:101DD00040EA82004860FFE79AE00399086A20F42D
:101DE000807008620399C86920F00300C8610198F7
:101DF00002880399086A40EA022008620399086A87
:101E000020F400700862019882880399086A40EA09
:101E100002200862039842F60041C4F201018842A0
:101E200008D0FFE7039843F20041C4F20101884261
:101E300031D1FFE70399086A20F4806008620198B5
:101E400042880399086A40EA022008620399086AF6
:101E500020F4006008620198C2880399086A40EA89
:101E6000022008620399486820F480504860019875
:101E700002890399486840EA02104860039948685B
:101E800020F400504860019842890399486840EA6C
:101E900002104860FFE73BE00399086A20F4805095
:101EA00008620399C86920F44070C86101980288EB
:101EB0000399086A40EA023008620399086A20F42C
:101EC00000500862019882880399086A40EA02304B
:101ED0000862039842F60041C4F20101884208D02A
:101EE000FFE7039843F20041C4F2010188420DD19B
:101EF000FFE70399486820F4804048600198028910
:101F00000399486840EA82104860FFE700E0FFE775
:101F100004B0704783B00290ADF80610ADF804200D
:101F2000BDF8060001460091032836D80099DFE885
:101F300001F0020E1B270299886920F07000886169
:101F4000BDF80420029988691043886126E002994F
:101F5000886920F4E0408861BDF80420029988690E
:101F600040EA0220886119E00299C86920F07000F7
:101F7000C861BDF804200299C8691043C8610DE02A
:101F80000299C86920F4E040C861BDF804200299B4
:101F9000C86940EA0220C86100E0FFE703B070476B
:101FA00084B00390ADF80A100192BDF80A00014612
:101FB0000091032814D80099DFE801F002060A0E08
:101FC0000198039948630CE001980399886308E03D
:101FD00001980399C86304E001980399086400E03C
:101FE000FFE704B07047000083B00290ADF8061020
:101FF000ADF80420BDF8060001460091032836D84C
:102000000099DFE801F0020E1B270299886920F091
:1020100008008861BDF8042002998869104388612E
:1020200026E00299886920F400608861BDF80420E8
:102030000299886940EA0220886119E00299C8691A
:1020400020F00800C861BDF804200299C869104357
:10205000C8610DE00299C86920F40060C861BDF84C
:1020600004200299C86940EA0220C86100E0FFE745
:1020700003B0704780B58AB040F20170FFF72AFDC7
:1020800040F20040C4F20000029000F01DF803A8E6
:10209000019000F0EBF9019902984F22ADF80C2065
:1020A0000022ADF80E20ADF8102063230593ADF8A3
:1020B000182000F009F90298012100F08DF902982A
:1020C00000F0F8F80AB080BD80B590B00F900F987E
:1020D0000E90B0F1804F74D0FFE70E9840F20041AF
:1020E000C4F20001884275D0FFE70E9840F6000167
:1020F000C4F20001884276D0FFE70E9840F6004116
:10210000C4F20001884277D0FFE70E9841F2000147
:10211000C4F20001884278D0FFE70E9841F20041F6
:10212000C4F20001884279D0FFE70E9841F6000121
:10213000C4F20001884200F09E80FFE70E9841F64D
:102140000041C4F20001884200F09E80FFE70E9833
:1021500042F20001C4F20001884200F09E80FFE7D5
:102160000E9842F60041C4F20101884220D0FFE7F8
:102170000E9843F20041C4F20101884257D0FFE7B4
:102180000E9844F60041C4F20101884258D0FFE79E
:102190000E9845F20001C4F20101884259D0FFE7D0
:1021A0000E9845F20041C4F2010188425AD07DE008
:1021B00040F20B300D90FFF7B5FC0D98FFF79EFC39
:1021C00075E04FF480600C90FFF7ACFC0C98FFF7C3
:1021D00095FC6CE040F201400B90FFF7A3FC0B98DC
:1021E000FFF78CFC63E040F202400A90FFF79AFC94
:1021F0000A98FFF783FC5AE040F203400990FFF78A
:1022000091FC0998FFF77AFC51E040F204400890F5
:10221000FFF788FC0898FFF771FC48E040F20540A2
:102220000790FFF77FFC0798FFF768FC3FE040F25C
:102230000D300690FFF776FC0698FFF75FFC36E05E
:1022400040F213300590FFF76DFC0598FFF756FC40
:102250002DE04FF445700490FFF764FC0498FFF7FD
:102260004DFC24E040F215300390FFF75BFC03982F
:10227000FFF744FC1BE040F206400290FFF752FCDF
:102280000298FFF73BFC12E040F207400190FFF795
:1022900049FC0198FFF732FC09E04FF4816000909F
:1022A000FFF740FC0098FFF729FC00E0FFE710B0C3
:1022B00080BD000081B000900099086840F00100E6
:1022C000086001B07047000082B001900091009852
:1022D000008801998862019842F60041C4F2010128
:1022E000884225D0FFE70198B0F1804F20D0FFE76A
:1022F000019840F20041C4F20001884218D0FFE783
:10230000019840F60001C4F20001884210D0FFE7B6
:10231000019840F60041C4F20001884208D0FFE76E
:10232000019843F20041C4F20101884216D1FFE74F
:102330000199086820F0700008600098408800F05B
:10234000600201990868104308600098808800F0D6
:1023500010020199086810430860FFE70098806840
:102360000199C862019841F20001C4F2000188425B
:1023700016D0FFE7019841F20041C4F20001884203
:102380000ED0FFE70199086820F4407008600098BB
:10239000808900F440720199086810430860FFE7E3
:1023A000019842F60041C4F20101884208D0FFE7DB
:1023B000019843F20041C4F20101884205D1FFE7D0
:1023C0000098807B01990863FFE70199486940F014
:1023D0000100486102B0704782B001900091009AFC
:1023E0000199C8681043C86002B0704782B001907C
:1023F00000910098C0430199086102B07047000045
:1024000084B0029001910298C06801990840009040
:10241000029800690199084207D0FFE7009820B1AF
:10242000FFE701208DF80F0003E000208DF80F007A
:10243000FFE79DF80F0004B07047000082B00190E4
:102440008DF803109DF80300012806D1FFE70199DC
:10245000486C40F40040486405E00199486C20F461
:1024600000404864FFE702B07047000081B0009070
:102470000099002008800099488000998880009A7F
:102480004FF6FF719160009988810099887301B0BF
:102490007047000080B590B040F20560FFF71AFB6E
:1024A00040F21170FFF716FB4FF4C0600890FFF781
:1024B00011FB41F20040C4F2010002901821039187
:1024C00003220C922023FEF7A1FE02980C9A04210D
:1024D00006914023FEF79AFE02980C9A10210B9168
:1024E00001230A93FEF792FE0A9908200790FEF74F
:1024F00065FF44F20040C4F20000019000F046FA8B
:1025000001980021049100F0F3FB0198049900F078
:1025100091FB0198049900F02FFB01984FF4E131F1
:10252000059100F037F90198069900F051FB0198E8
:10253000079900F0ABFB019800F096FA019840F281
:10254000053100F0C7FA02980A99FEF74FFE40F2F3
:1025500002600990FFF7BEFA40F21C60FFF7BAFA7A
:102560000898FFF7B7FA0A994020C0F23600FEF744
:10257000EBFD0A9940F20020C0F23800FEF7E4FDBE
:1025800003990C9A40F60000C4F201000E904FF43B
:102590000063FEF73BFE06990C9A0E984FF48053A9
:1025A000FEF734FE47F20000C4F201000D9000F087
:1025B000EDF904990D9800F09BFB04990D9800F03B
:1025C00039FB04990D9800F0D7FA05990D9800F0A1
:1025D000E1F806990D9800F0FBFA07990D9800F0C4
:1025E00055FB0D9800F040FA0898FFF773FA099828
:1025F000FFF770FA0A9940F20020C0F23000FEF7AF
:10260000DDFE0B990C9A0E984FF400430F93FEF7E2
:10261000FDFD0D98052100F05BF80E980F99FEF76F
:10262000E5FD10B080BD000083B00290ADF806104B
:10263000FF208DF805008DF80400FFE7BDF80600C7
:10264000411EADF80610E0B1FFE79DF804000299C5
:102650004A1C02920978484000909DF80500009AB3
:1026600042F6EC51C0F60001895C48408DF8040048
:10267000009942F6EC60C0F60000405C8DF8050061
:10268000DCE79DF805109DF8040040EA012003B046
:102690007047000083B00190ADF802100198BDF8BA
:1026A000021089094058BDF8021001F01F01C8400E
:1026B000C00720B1FFE701208DF80B0003E00020E8
:1026C0008DF80B00FFE79DF80B0003B0704700008A
:1026D00082B00190ADF80210BDF8020000F01F02B8
:1026E000012101FA02F301998209885818438850A0
:1026F00002B0704782B001900091009843F2094106
:10270000C3F20F41884208D1FFE70199D1F8D00008
:1027100020F40040C1F8D0000AE00098C0F3044162
:10272000012000FA01F20199086A10430862FFE7EC
:1027300002B0704785B00390029100200190009094
:102740000398BDF8081089094058029901F01F024A
:10275000012101FA02F2104001900398029A920DB1
:102760008058029AC2F304429140084000900098B9
:1027700038B1FFE7019820B1FFE701208DF8130081
:1027800003E000208DF81300FFE79DF8130005B06B
:102790007047000080B588B0079006910020059032
:1027A0000490039002900798019044F20041C4F213
:1027B0000001884232D0FFE7019844F60001C4F2DC
:1027C000000188422FD0FFE7019844F60041C4F28F
:1027D000000188422CD0FFE7019845F20001C4F2C5
:1027E0000001884229D0FFE7019843F60001C4F2B6
:1027F0000101884208D0FFE7019847F20001C4F2C6
:102800000101884205D01DE00320FFF72DF8059057
:1028100019E00420FFF728F8059014E00220FFF7E4
:1028200023F805900FE00220FFF71EF805900AE05C
:102830000220FFF719F8059005E00220FFF714F8D1
:10284000059000E0FFE7079847F20001C4F201019C
:10285000884231D1FFE7079800680004002812D5AC
:10286000FFE705984000069900EB5100B0FBF1F03E
:10287000029002984FF6F071084004900298C0F35D
:102880004200039010E00598069900EB5100B0FB60
:10289000F1F0029002984FF6F0710840049002980F
:1028A00000F00F000390FFE7BDF81000BDF80C101A
:1028B00008430799C86030E00798C0680004002802
:1028C00012D5FFE705984000069900EB5100B0FBD8
:1028D000F1F0029002984FF6F071084004900298CF
:1028E000C0F34200039010E00598069900EB5100F8
:1028F000B0FBF1F0029002984FF6F071084004909E
:10290000029800F00F000390FFE7BDF81000BDF83B
:102910000C10084307998860FFE708B080BD0000ED
:1029200082B00090009847F20001C4F20101884291
:1029300007D1FFE70098406A6FF35F20ADF806000B
:1029400006E0009840686FF35F20ADF80600FFE7EF
:10295000BDF8060002B0704782B001900091019866
:1029600047F20001C4F20101884206D1FFE7009856
:102970006FF35F200199886205E000986FF35F2094
:1029800001994860FFE702B07047000080B588B049
:1029900007900798069044F20041C4F20001884273
:1029A00031D0FFE7069844F60001C4F200018842E6
:1029B00032D0FFE7069844F60041C4F20001884295
:1029C0003CD0FFE7069845F20001C4F200018842BE
:1029D0003DD0FFE7069843F60001C4F201018842AA
:1029E00008D0FFE7069847F20001C4F201018842CF
:1029F0001BD035E040F20E300590FFF793F80598B4
:102A0000FFF77CF82DE040F211400490FFF78AF8C0
:102A10000498FFF773F824E040F212400390FFF7A8
:102A200081F80398FFF76AF81BE04FF447700290B3
:102A3000FFF778F80298FFF761F812E040F21340D0
:102A40000190FFF76FF80198FFF758F809E040F29E
:102A500014400090FFF766F80098FFF74FF800E089
:102A6000FFE708B080BD000081B00090009847F2F9
:102A70000001C4F20101884206D1FFE7009908680D
:102A800040F00100086005E00099C86840F400507B
:102A9000C860FFE701B0704783B00190ADF8021045
:102AA0000198BDF8021089094058BDF8021001F0E4
:102AB0001F01C840C00720B1FFE701208DF80B00BF
:102AC00003E000208DF80B00FFE79DF80B0003B03A
:102AD0007047000082B00190ADF80210BDF802000E
:102AE00000F01F02012101FA02F3019982098858BE
:102AF0001843885002B0704782B00190009100984E
:102B0000C0F30442012101FA02F30199820D8858B1
:102B10009843885002B0704785B00390029100201E
:102B2000019000900398BDF8081089094058029957
:102B300001F01F02012101FA02F2104001900398F6
:102B4000029A920D8058029AC2F3044291400840C2
:102B50000090009838B1FFE7019820B1FFE701200D
:102B60008DF8130003E000208DF81300FFE79DF8B7
:102B7000130005B07047000082B0019000910198E9
:102B800047F20001C4F20101884212D1FFE7019926
:102B9000086820F0010008600199086820F4C0600E
:102BA0000860009800F4C06201990868104308604A
:102BB0000CE00199C86820F4C060C860009800F477
:102BC000C0620199C8681043C860FFE702B070474F
:102BD00083B00290019100200090029847F200011A
:102BE000C4F20101884211D1FFE702980068009009
:102BF000009820F004000090019800F00401009873
:102C00000843009000980299086010E00298C0689C
:102C10000090009820F004000090019800F004015A
:102C200000980843009000980299C860FFE703B03D
:102C30007047000082B001900091019847F20001B6
:102C4000C4F20101884212D1FFE70199086820F01F
:102C5000010008600199486820F4405048600098DD
:102C600000F4405201994868104348600CE0019913
:102C7000086920F440500861009800F4405201991E
:102C8000086910430861FFE702B0704783B0029003
:102C9000019100200090029847F20001C4F2010166
:102CA000884211D1FFE7029800680090009820F058
:102CB00008000090019800F0080100980843009077
:102CC00000980299086010E00298C068009000988F
:102CD00020F008000090019800F0080100980843D7
:102CE000009000980299C860FFE703B070470000A9
:102CF00082B001900091019847F20001C4F20101F5
:102D0000884212D1FFE70199086820F001000860AD
:102D10000199086820F480500860009800F48052FF
:102D200001990868104308600CE00199C86820F414
:102D30008050C860009800F480520199C868104320
:102D4000C860FFE702B0704780B584B040F203600E
:102D5000FEF7C0FE40F20560FEF7BCFE40F20460E4
:102D6000FEF7B8FE40F60040C4F2010000901021CA
:102D70000191032202924023FEF748FA009801993C
:102D8000029A80230393FEF741FA0199029A41F2D5
:102D90000040C4F201000223FEF738FA00980199BE
:102DA000029A4FF40073FEF731FA00980199029AE3
:102DB0004FF48073FEF72AFA0199029A039B41F2BD
:102DC0000000C4F20100FEF721FA04B080BD02E069
:102DD00008C8121F08C1002AFAD1704770470020A6
:102DE00001E001C1121F002AFBD1704700C18140E0
:102DF00001C0804101C0804100C1814001C08041CB
:102E000000C1814000C1814001C0804101C08041BA
:102E100000C1814000C1814001C0804100C18140AA
:102E200001C0804101C0804100C1814001C080419A
:102E300000C1814000C1814001C0804100C181408A
:102E400001C0804101C0804100C1814000C181407A
:102E500001C0804101C0804100C1814001C080416A
:102E600000C1814000C1814001C0804101C080415A
:102E700000C1814000C1814001C0804100C181404A
:102E800001C0804101C0804100C1814000C181403A
:102E900001C0804101C0804100C1814001C080412A
:102EA00000C1814000C1814001C0804100C181401A
:102EB00001C0804101C0804100C1814001C080410A
:102EC00000C1814000C1814001C0804101C08041FA
:102ED00000C1814000C1814001C0804100C18140EA
:102EE00001C0804101C0804100C1814000C0C101DA
:102EF000C30302C2C60607C705C5C404CC0C0DCD6A
:102F00000FCFCE0E0ACACB0BC90908C8D81819D9D9
:102F10001BDBDA1A1EDEDF1FDD1D1CDC14D4D51509
:102F2000D71716D6D21213D311D1D010F03031F1F9
:102F300033F3F23236F6F737F53534F43CFCFD3D29
:102F4000FF3F3EFEFA3A3BFB39F9F83828E8E92919
:102F5000EB2B2AEAEE2E2FEF2DEDEC2CE42425E5C9
:102F600027E7E62622E2E323E12120E0A06061A139
:102F700063A3A26266A6A767A56564A46CACAD6DE9
:102F8000AF6F6EAEAA6A6BAB69A9A86878B8B97959
:102F9000BB7B7ABABE7E7FBF7DBDBC7CB47475B589
:102FA00077B7B67672B2B373B17170B05090915179
:102FB0009353529296565797559594549C5C5D9DA9
:102FC0005F9F9E5E5A9A9B5B995958988848498999
:102FD0004B8B8A4A4E8E8F4F8D4D4C8C4484854549
:102FE00087474686824243834181804010300008F3
:102FF0000000002008000000CE2D00081830000856
:1030000008000020500A0000DE2D0008000000002B
:083010000E01010000127A001C
:04000005080001A14D
:00000001FF
