:020000040800F2
:10000000B8040020B50100087D050008610500085E
:1000100079050008190300083108000800000000F5
:1000200000000000000000000000000011060008B1
:100030004D04000800000000810500084507000885
:10004000CF010008CF010008CF010008CF01000850
:10005000CF010008CF010008CF010008CF01000840
:10006000CF010008CF010008CF010008CF01000830
:10007000CF010008CF010008CF010008CF01000820
:10008000CF010008CF010008CF010008CF01000810
:10009000CF0100080000000000000000CF010008B0
:1000A000CF010008CF010008CF010008CF010008F0
:1000B000CF010008CF010008CF010008CF010008E0
:1000C000CF010008CF010008CF010008CF010008D0
:1000D000CF010008CF010008CF010008CF010008C0
:1000E000CF010008CF010008CF010008CF010008B0
:1000F000CF010008CF010008CF010008CF010008A0
:10010000CF010008CF010008CF010008CF0100088F
:10011000CF010008CF010008CF010008CF0100087F
:10012000CF010008CF010008CF010008CF0100086F
:1001300000000000000000000000000000000000BF
:1001400000000000000000000000000000000000AF
:1001500000000000CF010008CF010008CF01000817
:10016000CF010008CF0100080000000000000000DF
:10017000CF010008CF0100080000000000000000CF
:100180000000000000000000CF010008CF010008BF
:10019000CF010008CF010008CF01000800000000D7
:1001A000DFF80CD000F018F800480047BD0E00083A
:1001B000B80400200648804706480047FEE7FEE7EF
:1001C000FEE7FEE7FEE7FEE7FEE7FEE7FEE7FEE707
:1001D00089070008A1010008064C074D06E0E06809
:1001E00040F0010394E8070098471034AC42F6D37E
:1001F000FFF7DAFF4C1A00086C1A000880B540F2CD
:100200001C7001F005F940F21B7001F001F900F0DB
:10021000BBFF4FF4807000F0A1FB80BD80B586B0BD
:100220000490ADF80E10029200F06CF900900020DE
:10023000ADF80600FFE7BDF80600BDF80E108842D5
:1002400027DAFFE7FFE743F60000C4F201000521CB
:1002500001F06CFB60B9FFE7009800F067F90299C4
:10026000884204D3FFE700208DF8170015E0EAE785
:1002700043F60000C4F2010001F09CFA0499BDF8B5
:1002800006208854FFE7BDF806000130ADF80600EF
:10029000D1E701208DF81700FFE79DF8170006B0A1
:1002A00080BD000080B582B001908DF80310002061
:1002B0008DF80200FFE79DF802009DF803108842C8
:1002C0000DDAFFE701989DF80210405C00F00AF893
:1002D000FFE79DF8020001308DF80200EBE702B065
:1002E00080BD000080B582B08DF807009DF8071032
:1002F00043F60000C4F2010001F078FAFFE743F68C
:100300000000C4F20100062101F010FB08B9FFE76C
:10031000F5E702B080BD0000FFE7FEE783B0029082
:10032000ADF806100020ADF80200ADF80400FFE7BC
:10033000BDF80400BDF80610884210DAFFE7029805
:10034000BDF80410415CBDF802000844ADF802009D
:10035000FFE7BDF804000130ADF80400E8E79DF8C0
:10036000020003B07047000080B586B00490049A84
:1003700040F22000C2F200000521FFF74FFF20B934
:10038000FFE701208DF817005CE040F22000C2F288
:1003900000000078422851D1FFE740F22000C2F26D
:1003A000000040784F2849D1FFE740F22000C2F218
:1003B000000080784F2841D1FFE740F22000C2F2D0
:1003C0000000C078542839D1FFE740F22000C2F283
:1003D00000000079342831D1FFE740F22003C2F257
:1003E00000030193AA20029018700A210091184678
:1003F00000F8011F0821997000220392DA701A7127
:100400005A714FF0E00C83F806C04FF0040C83F8EB
:1004100007C01A72FFF782FF0099024601984272E4
:10042000FFF740FF029840F2A401C2F200010870F9
:1004300000F0A8FB03988DF8170003E001208DF869
:100440001700FFE79DF8170006B080BD7047000059
:1004500081B00090FFE70098411E0091D8B1FFE7FE
:1004600040F21801C2F2000100200860FFE740F2EC
:100470001800C2F20000006842F62701884209D83D
:10048000FFE7FFE740F21801C2F2000108680130FF
:100490000860ECE7DFE701B07047000080B586B088
:1004A00044F20400C0F60000029000680490049832
:1004B000039041F20000C4F2010001904FF480511A
:1004C00000F000FC01984FF4006100F0FBFB029883
:1004D000016840F2AC00C2F200000160016840F225
:1004E000A800C2F20000016044F20001C0F6000161
:1004F00009680591059981F3088800688047FFE73E
:10050000FEE7000083B001200190019880F310887D
:1005100040F2A000C2F200000068009000200290AB
:10052000029880F31088009803B0704780B584B0BB
:100530000290FFF7E7FF019001980299884205D3E6
:10054000FFE701980299401A039005E0019902988B
:10055000C04308440390FFE7039804B080BD000047
:10056000FFE7FEE780B540F2A001C2F200010020E3
:10057000086001F03FF880BDFFE7FEE7704700002C
:100580007047000080B540F2026000F041FF40F289
:10059000036000F03DFF40F2046000F039FF80BDD1
:1005A00080B582B040F21C00C2F2000000680090EA
:1005B0000020ADF80600FFE7BDF806003F2815DC77
:1005C000FFE70098BDF80620815C40F22000C2F2EF
:1005D00000008154BDF80610405CFFF783FEFFE782
:1005E000BDF806000130ADF80600E5E740F2200056
:1005F000C2F200004021FFF791FEFFF773FE40F2C8
:100600001C01C2F2000108684030086002B080BDE1
:100610007047000080B582B040F22000C2F20000B6
:1006200005214FF47A72FFF7F9FD20B9FFE70120A9
:10063000FFF758FE5AE040F22000C2F2000000909E
:100640000421FFF76BFE00990979884204D0FFE787
:100650000220FFF747FE49E000208DF80700FFE782
:100660009DF80700032818DCFFE740F21C01C2F2E6
:1006700000010868000208609DF8072040F2200091
:10068000C2F20000825C086810440860FFE79DF831
:10069000070001308DF80700E2E740F21C00C2F2CB
:1006A0000000006844F20001C0F6000188420CD34B
:1006B000FFE740F21C00C2F20000006848F20001AF
:1006C000C0F60301884204D3FFE70320FFF70AFEC8
:1006D0000CE040F21C01C2F2000144F20000C0F63E
:1006E000000008600020FFF7FDFDFFE702B080BDBD
:1006F00080B582B0009000980138B0F1807F03D3BC
:10070000FFE70120019019E0009801384EF2140132
:10071000CEF2000108604FF0FF300F2100F0FCF82E
:100720004EF21801CEF20001002008604EF21002D5
:10073000CEF20002072111600190FFE7019802B09C
:1007400080BD000040F2A001C2F200010868013043
:10075000086040F2B000C2F20000006890B1FFE70C
:1007600040F2B000C2F2000000684EF65F218842FD
:1007700008D8FFE740F2B001C2F20001086801307A
:100780000860FFE77047000080B582B04EF68851E0
:10079000CEF20001086840F47000086041F20001E8
:1007A000C4F20201086840F00100086041F204014F
:1007B000C4F20201086840F0800008600020019047
:1007C000FFE7019844F61F61884205D8FFE7FFE77D
:1007D000019801300190F4E741F20401C4F20201F2
:1007E00000200090086041F22C01C4F20201086070
:1007F00041F20001C4F2020108684FF6FF72CFF621
:10080000F6621040086041F20802C4F202024FF49E
:100810001F001060086820F48020086000F0E6FEE9
:1008200000994FF0006000F09DFC02B080BD000018
:10083000FFE7FEE780B584B040F22000C2F200007E
:1008400041214FF47A72FFF7E9FC20B9FFE701205C
:10085000FFF748FD5DE040F22000C2F20000019089
:100860004021FFF75BFD019991F84010884204D0C8
:10087000FFE70220FFF736FD4BE040F2A400C2F292
:1008800000000078AA2835D1FFE740F21C00C2F230
:1008900000000088C00440B9FFE740F21C00C2F22B
:1008A0000000006800F0D2F8FFE740F22000C2F23A
:1008B000000002900020ADF80E00FFE7BDF80E002A
:1008C0003F2816DCFFE740F21C00C2F2000000687F
:1008D000BDF80E1008440299096800F06DF9FFE7B1
:1008E000BDF80E000430ADF80E00029804300290FE
:1008F000E4E703E00320FFF7F5FC0AE040F21C0107
:10090000C2F200010868403008600020FFF7EAFCEE
:10091000FFE704B080BD000082B08DF807000091B1
:100920009DF9070000280AD4FFE7009800019DF90F
:1009300007104EF20042CEF2000288540BE00098FD
:1009400000019DF8071001F00F014EF61452CEF28F
:1009500000028854FFE702B07047000081B0ADF894
:1009600002009DF8032046F63441C4F200010888D5
:100970001043088001B0704781B08DF8030000205B
:10098000ADF800009DF803000B2810DBFFE79DF891
:1009900003002A280BDCFFE79DF8031046F61440FD
:1009A000C4F2000030F82100ADF8000016E09DF818
:1009B0000300012810DBFFE79DF803000A280BDC89
:1009C000FFE79DF8031046F60040C4F2000030F83F
:1009D0002100ADF8000000E0FFE7FFE7BDF80000F0
:1009E00001B0704781B08DF80300ADF800109DF89C
:1009F00003000B2810DBFFE79DF803002A280BDC1F
:100A0000FFE7BDF800009DF8032046F61441C4F24C
:100A1000000121F8220016E09DF80300012810DBF8
:100A2000FFE79DF803000A280BDCFFE7BDF8000094
:100A30009DF8032046F60041C4F2000121F822008F
:100A400000E0FFE7FFE701B07047000080B584B029
:100A500003904FF4801000F029F88DF80B009DF8FA
:100A60000B00F8B9FFE742F21001C4F20201019154
:100A7000086840F002000860039842F21402C4F2D1
:100A800002021060086840F0400008604FF48010D7
:100A900000F00CF801998DF80B00086820F00200B6
:100AA0000860FFE79DF80B0004B080BD80B584B0FE
:100AB000039001208DF80B00FFE700F025F88DF87A
:100AC0000B00039801380390FFE79DF80B100020FE
:100AD0000129019006D1FFE70398002818BF0120E3
:100AE0000190FFE70198C0070028E6D1FFE79DF8D5
:100AF0000B00012804D1FFE705208DF80B00FFE76C
:100B00009DF80B0004B080BD81B000208DF803007B
:100B100042F20C00C4F202000068C00720B1FFE7F7
:100B200001208DF8030029E042F20C00C4F202001B
:100B30000068C006002804D5FFE704208DF80300F4
:100B40001BE042F20C00C4F20200006840070028DB
:100B500004D5FFE702208DF803000DE042F20C00FF
:100B6000C4F2020000680007002804D5FFE7032054
:100B70008DF80300FFE7FFE7FFE7FFE79DF80300BD
:100B800001B0704742F21000C4F202000068000693
:100B900000280FD5FFE742F20401C4F2020140F23F
:100BA0002310C4F26750086048F6AB10CCF6EF5043
:100BB0000860FFE77047000080B584B003900291A1
:100BC0004FF48010FFF772FF8DF807009DF80700C3
:100BD000C0B9FFE742F21001C4F2020100910868B7
:100BE00040F0010008600298039908604FF48010FB
:100BF000FFF75CFF00998DF80700086820F00100FE
:100C00000860FFE79DF8070004B080BD80B586B09E
:100C1000059000200490059843F60001C4F20101FC
:100C2000884203D1FFE70020049001E0FFE7FEE7E0
:100C3000049940F20200C2F2000030F8110000F006
:100C4000E7FB049940F20000C2F2000030F8110006
:100C500000F0DEFB049A40F20400C2F200000190B2
:100C600050F8220040F20C01C2F2000151F822308B
:100C700018210322029200F049F80198029A049B7D
:100C800050F8230040F20801C2F2000151F823306D
:100C90000421039100F03AF8059800F0C1FD059891
:100CA0004FF4164100F0C0FC0399059800F05CFE7B
:100CB0000598082100F08AFE059800F01FFE06B096
:100CC00080BD000082B001900091009801994861B8
:100CD00002B0704782B001900091009801990861BC
:100CE00002B0704783B0029001918DF803209DF807
:100CF000030020B1FFE701980299086103E0019821
:100D000002994861FFE703B07047000087B0069082
:100D1000059104920393002001900090059800F043
:100D20000F0001909DF81400C006002814D5FFE7BD
:100D3000049804280AD1FFE7019840F003000190CD
:100D4000039A0699C86B1043C86304E0049901989C
:100D500008430190FFE7FFE70020ADF80A00FFE736
:100D6000BDF80A00072842D8FFE7BDF80A1003982B
:100D7000C840C007A0B3FFE7069800680090BDF820
:100D80000A0081000F2000FA01F1009888430090CA
:100D90000198BDF80A10890000FA01F10098084393
:100DA00000900598282809D1FFE7BDF80A10012016
:100DB000884003990840069948610DE00598482845
:100DC00009D1FFE7BDF80A100120884003990840C7
:100DD00006990861FFE7FFE7009806990860FFE7BA
:100DE000FFE7BDF80A000130ADF80A00B8E70820B7
:100DF000ADF80A00FFE7BDF80A000F2846D8FFE764
:100E0000BDF80A100398C840C007C0B3FFE70698B2
:100E100040680090BDF80A006FF01F0101EB8002EE
:100E20000F2000FA02F20098904300900198BDF85C
:100E30000A2001EB820100FA01F1009808430090BA
:100E40000598282809D1FFE7BDF80A10012088403D
:100E500003990840069948610DE00598482809D192
:100E6000FFE7BDF80A100120884003990840069961
:100E70000861FFE7FFE7009806994860FFE7FFE792
:100E8000BDF80A000130ADF80A00B4E707B07047BA
:100E900083B0019000910198C0680099084204D085
:100EA000FFE701208DF80B0003E000208DF80B0018
:100EB000FFE79DF80B0003B07047000080B58CB0D1
:100EC000002107910A914FF0006000F04BF907985C
:100ED0000B900B9880F3108840F2046000F098FAB1
:100EE00041F20000C4F201000890102103224FF4E7
:100EF000C053FFF70BFF08984FF48051FFF7E2FE55
:100F000008984FF40061FFF7DDFEFFF73BFBFFF7AA
:100F100029FBFFF773F943F60000C4F20100FFF765
:100F200075FE0120FFF728FDADF82400BDF8240070
:100F300041F23421884237D1FFE7FFE740F2200039
:100F4000C2F20000012147F23052FFF767F98DF835
:100F500027009DF8270038B9FFE701200021FFF79F
:100F600041FDFFF79BFAFFE740F22000C2F20000CC
:100F70000078AA2801D0FFE7E0E76420FFF7F4F942
:100F800038B1FFE701200021FFF72CFDFFF786FABB
:100F900008E041F20000C4F201004FF48051FFF775
:100FA00099FE00E0CAE711E044F20000C0F600003C
:100FB00000680021C2F6FE710840B0F1005F03D165
:100FC000FFE7FFF76BFA00E0FFE7FFE700208DF88F
:100FD000270040F2B001C2F2000101200860FFE7E3
:100FE00040F2B000C2F2000000684EF65F21884275
:100FF0000ED8FFE79DF82700A22815D1FFE740F2A1
:10100000B000C2F200000068B0F5FA7F0CD3FFE731
:1010100040F2B000C2F20000002101600120FFF7A1
:10102000E1FCFFF73BFAFFE70DF127000121642205
:10103000FFF7F4F808B9FFE7D2E79DF82700A038DA
:1010400001460691102800F286800699DFE801F03B
:1010500009243F838383838383835F8383838383A1
:101060006A0040F2B001C2F200010020086041F2C3
:101070000000C4F2010005904FF480510491FFF785
:1010800007FF049902460598C2F10102D2B2FFF7A8
:1010900029FEFFF7BFFA63E040F2B001C2F200019F
:1010A0000120086041F20000C4F2010003904FF4F7
:1010B00080510291FFF7ECFE029902460398C2F1BB
:1010C0000102D2B2FFF70EFEFFF7B4FB48E040F298
:1010D000B001C2F200010120086041F20000C4F238
:1010E000010001904FF48051FFF7ECFD01984FF49F
:1010F00000610091FFF7CCFE009902460198C2F111
:101100000102D2B2FFF7EEFDFFF74AFA28E040F203
:10111000B001C2F20001002008604FF47A70FFF7BE
:1011200023F91DE040F2B001C2F200010020086086
:1011300040F22000C2F2000001214FF47A72FFF762
:101140006DF838B1FFE701200021FFF74BFCFFF7F6
:10115000A5F9FFE704E04FF47A70FFF779F9FFE7AC
:101160003EE7000082B001900091019800994FF68F
:101170008072C1F6FF72114008434EF60851CEF25C
:101180000001086002B0704747F20001C4F200019C
:10119000086840F4807008607047000099B08DF8CE
:1011A000630000201690119040F20671C0F60811FD
:1011B000099140F20121C0F2034108910790069085
:1011C000059104900391029041F20400C4F20200E0
:1011D0000068C0F3810017901798019040B1FFE7B5
:1011E000019801280AD0FFE7019802280CD087E077
:1011F00041F20020C0F27A00159087E041F2002011
:10120000C0F27A00159081E041F20400C4F20200BD
:10121000006800F4803010901098B0F5803F2BD11A
:10122000FFE741F22C00C4F20200006800F08040A9
:101230000F900F9830B9FFE741F20020C0F27A001A
:101240000C9005E046F60040C0F2DC200C90FFE771
:1012500041F20400C4F20200006800F400300E9075
:101260000E98B0F5003F06D1FFE740F60010C0F23F
:101270003D000C90FFE705E040F60010C0F23D0095
:101280000C90FFE741F20400C4F202000168C1F3D0
:1012900083410D9100680001002805D5FFE70D98F6
:1012A00040F010000D90FFE741F20400C4F202008C
:1012B00000684000002805D5FFE70D9840F02000A9
:1012C0000D90FFE70D980E2804D8FFE70D98023027
:1012D0000D900FE00D980F2808D3FFE70D983E28DA
:1012E00004D8FFE70D9801300D9002E03F200D90EB
:1012F000FFE7FFE70C980D9900FB01F0159005E062
:1013000041F20020C0F27A001590FFE741F204009C
:10131000C4F202000168C9B209090B910B9A06A92F
:10132000895C0A9115990A9AD14014910168C1F318
:1013300002210B910B9A04A9895C0A9114990A9ACB
:10134000D14013910068C0F3C2200B900B9902A802
:10135000405C0A9014980A99C84012909DF8630066
:101360000146009104284ED80099DFE801F00306F9
:10137000090C0F001598169046E01498169043E05B
:101380001398169040E0129816903DE041F2D40078
:10139000C4F202000068800718B9FFE712981190A4
:1013A0002EE041F2D400C4F20200006800F0030015
:1013B000012803D1FFE71598119020E041F2D400F5
:1013C000C4F20200006800F00300022804D1FFE725
:1013D0004FF40040119011E041F2D400C4F2020039
:1013E000006800F00300032806D1FFE741F2002067
:1013F000C0F27A00119000E0FFE7FFE7FFE7FFE7A8
:101400001198169000E0FFE7169819B07047000099
:1014100081B0ADF80200BDF8020000F01F0201210A
:1014200001FA02F3810941F20002C4F20202885873
:101430001843885001B0704781B0ADF80200BDF884
:10144000020000F01F02012101FA02F3810941F2BA
:101450000002C4F2020288589843885001B07047D5
:1014600081B0ADF80200BDF8020000F01F020121BA
:1014700001FA02F3810941F20002C4F20202885823
:101480001843885001B0704784B000200390029048
:1014900041F20001C4F20201086840F00100086056
:1014A000FFE703980130039041F20000C4F202000C
:1014B000006800F002000290FFE70299002001900E
:1014C00039B9FFE70398B0F5A06018BF012001907B
:1014D000FFE70198C0070028E3D1FFE741F20000D1
:1014E000C4F2020000688007002802D4FFE7FFE78B
:1014F000FEE742F20001C4F202010868042262F32E
:101500000200086041F21C01C4F20201086840F0C8
:101510008050086041F20401C4F2020100910868A1
:10152000086008680860086840F48060086008681F
:101530004FF6FF72CBF2C3721040086008680022B9
:10154000C4F230021043086041F20001C4F202010B
:10155000086840F080700860FFE741F20000C4F2C4
:10156000020000688001002801D4FFE7F5E747F298
:101570000001C4F20001086840F480300860FFE711
:1015800047F20400C4F200000068C003002801D440
:10159000FFE7F5E747F20001C4F20001086840F4F4
:1015A00000300860FFE747F20400C4F20000006862
:1015B0008003002801D4FFE7F5E741F20401C4F2FB
:1015C0000201086820F003000860086840F002008B
:1015D0000860FFE741F20400C4F20200006800075F
:1015E000002801D4FFE7F5E704B0704780B5FFF7A6
:1015F0004BFF80BD80B540F21000C2F200000068D1
:1016000044F6D351C1F26201A0FB01108009FFF73B
:101610006FF810B1FFE7FFE7FEE74FF0FF30002162
:10162000FFF77AF980BD000080B588B00790069179
:10163000002005900490039002900798019044F2D6
:101640000041C4F20001884232D0FFE7019844F61D
:101650000001C4F2000188422FD0FFE7019844F650
:101660000041C4F2000188422CD0FFE7019845F206
:101670000001C4F20001884229D0FFE7019843F637
:101680000001C4F20101884208D0FFE7019847F247
:101690000001C4F20101884205D01DE00320FFF7DC
:1016A0007DFD059019E00420FFF778FD059014E01A
:1016B0000220FFF773FD05900FE00220FFF76EFD9B
:1016C00005900AE00220FFF769FD059005E0022081
:1016D000FFF764FD059000E0FFE7079847F200017F
:1016E000C4F20101884231D1FFE707980068000485
:1016F000002812D5FFE705984000069900EB51003D
:10170000B0FBF1F0029002984FF6F071084004909F
:101710000298C0F34200039010E00598069900EB90
:101720005100B0FBF1F0029002984FF6F0710840C2
:101730000490029800F00F000390FFE7BDF810003E
:10174000BDF80C1008430799C86030E00798C068DE
:101750000004002812D5FFE705984000069900EB29
:101760005100B0FBF1F0029002984FF6F071084082
:1017700004900298C0F34200039010E00598069987
:1017800000EB5100B0FBF1F0029002984FF6F071BF
:1017900008400490029800F00F000390FFE7BDF8A6
:1017A0001000BDF80C10084307998860FFE708B0E7
:1017B00080BD000082B00090009847F20001C4F2A2
:1017C0000101884207D1FFE70098406A6FF35F206C
:1017D000ADF8060006E0009840686FF35F20ADF8B2
:1017E0000600FFE7BDF8060002B0704782B0019026
:1017F0000091019847F20001C4F20101884206D12C
:10180000FFE700986FF35F200199886205E0009878
:101810006FF35F2001994860FFE702B07047000056
:1018200080B588B007900798069044F20041C4F252
:101830000001884231D0FFE7069844F60001C4F267
:101840000001884232D0FFE7069844F60041C4F216
:10185000000188423CD0FFE7069845F20001C4F23F
:10186000000188423DD0FFE7069843F60001C4F22C
:101870000101884208D0FFE7069847F20001C4F250
:10188000010188421BD035E040F20E300590FFF791
:10189000E7FD0598FFF7D0FD2DE040F211400490E0
:1018A000FFF7DEFD0498FFF7C7FD24E040F2124089
:1018B0000390FFF7D5FD0398FFF7BEFD1BE04FF443
:1018C00047700290FFF7CCFD0298FFF7B5FD12E0DC
:1018D00040F213400190FFF7C3FD0198FFF7ACFD04
:1018E00009E040F214400090FFF7BAFD0098FFF7BE
:1018F000A3FD00E0FFE708B080BD000081B00090CC
:10190000009847F20001C4F20101884206D1FFE7C6
:101910000099086840F00100086005E00099C86877
:1019200040F40050C860FFE701B0704783B00190F9
:10193000ADF802100198BDF8021089094058BDF8B1
:10194000021001F01F01C840C00720B1FFE70120CD
:101950008DF80B0003E000208DF80B00FFE79DF8E9
:101960000B0003B07047000083B00290019100208B
:101970000090029847F20001C4F20101884211D19F
:10198000FFE7029800680090009820F004000090A3
:10199000019800F004010098084300900098029913
:1019A000086010E00298C0680090009820F00400E1
:1019B0000090019800F004010098084300900098FE
:1019C0000299C860FFE703B07047000083B002903F
:1019D000019100200090029847F20001C4F2010139
:1019E000884211D1FFE7029800680090009820F02B
:1019F00008000090019800F008010098084300904A
:101A000000980299086010E00298C0680090009861
:101A100020F008000090019800F0080100980843A9
:101A2000009000980299C860FFE703B0704702E099
:101A300008C8121F08C1002AFAD170477047002059
:101A400001E001C1121F002AFBD17047701A000883
:101A500000000020180000002E1A0008881A000854
:101A600018000020A00400003E1A0008000000003A
:101A70000E060206000801400004000000020000FB
:081A80000095BA0A0000000005
:04000005080001A14D
:00000001FF
